:100000000C94AA100C94E5100C94E5100C94E510D7
:100010000C94E5100C94E5100C94E5100C94E5108C
:100020000C94E5100C94E5100C94E5100C94E5107C
:100030000C94E5100C9474480C94E5100C94E510A5
:100040000C94E5100C94E5100C94E5100C94E5105C
:100050000C94E5100C94E5100C94E5100C94E5104C
:100060000C94E5100C945BF70C94E5100C9487F756
:100070000C94E5100C9487B70C94E5100C94E510E3
:100080000C9407480C94E5100C94E5100C94E510C2
:100090000C94BBF70C94E5100C94E7F70C94E51066
:1000A0000C94E5100C94E5100C94E5100C94E510FC
:1000B0000C94E5100C94E5100C94E5100C949C48FD
:1000C0000C94E5100C94E5100C94E5100C94E510DC
:1000D0000C94E5100C94E5100C94E5100C94E510CC
:1000E0000C94E51083411642D241AF41DD41A2425A
:1000F000A242AF410942A24219421E423342384253
:10010000A242A242E741AF410442A2429641E241EB
:100110003D4252425A42A242A24281420C94F6C649
:100120000C9449C70C94A1D20C9483F30C943342E1
:100130000C940FD00C94B6B70C9420C70C945A4270
:100140000C948CB40C94E7C10C94BC920C9427C60C
:100150000C94B0F30C94ABD90C941FB70C9418C644
:100160000C941DCE0C94A3990C94A2420C94FBC841
:100170000C9429F80C940BD20C94F0C50C9455D91E
:100180000C94DAB00C941BF80C9444EC0C94ABEA8D
:100190000C94EDF40C94FF7C0C94DA4D0C94221327
:1001A0000C9428D60C943D420C94C7DA0C9497CF4B
:1001B0000C9444CA0C94E38C0C944FDF0C94CFC580
:1001C0000C944F9A0C9413C70C943BC60C94384271
:1001D0000C94D3CF0C94F6CC0C9438440C94E6C514
:1001E0000C943EC70C94D8CE0C94ADED0C9490EBCF
:1001F0000C948CEF0C94D0EA0C9465F30C9441446D
:100200000C94D5C70C94BF3B0C9417CB0C94BECE6A
:100210000C94CD370C946DC90C944EBA0C9498E4A0
:100220000C947FEE0C94DCC80C9429EF0C9436C629
:100230000C9409420C941DC60C9474510C9431C654
:100240000C9422C60C9461DA0C9431910C94ADD0CC
:100250000C94AADF0C942CCA0C94C2AE0C9488D2D5
:100260000C945DF30C9439440C949CC70C94D1927B
:100270000C948BD70C9404420C94DCC50C94ACE128
:100280000C94F0D80C940CD70C94B2AF0C94F5BE2F
:100290000C94D7DB0C948ACA0C945CCA0C9476EC50
:1002A0000C9495D40C94CAF60C9418C80C94E7419D
:1002B0000C94CAE40C9440C60C94EFD30C94A58E15
:1002C0000C9435F60C946FEE0C94A5CE0C94278C00
:1002D0000C944DCF0C941E420C9404C60C9460DC1C
:1002E0000C941FD70C9440910C94F1680C943AC76D
:1002F0000C94B0D60C940EC60C94AFC70C948341EA
:100300000C9419CA0C9449D60C94038F0C94DFC832
:100310000C9461B80C9481420C94EACE0C9425DACA
:100320000C9429C70C9425D10C9496410C94E5D7D4
:100330000C941BDB0C94F5C50C94ED100C9409C7C0
:100340000C94E1C50C9419420C94E2410C9448C7FA
:100350000C9437920C9413C60C94A6D70C9418C71F
:100360000C94DA8D0C9487C90C94EBC50C9496E32D
:100370000C9499370C9489E50C947AC80C94164225
:100380000C941CC70C94CADB0C94AF410C946FD72F
:100390000C9480D50C94D7C50C9406C80C944E923E
:1003A0000C9487EB0C9467CD0C9445C60C94E2F545
:1003B0000C9454F60C9409C60C9471C20C945242DD
:1003C0000C94F2C60C94ADCB0C9403CE0C9443C7A2
:1003D0000C949DD60C949DB20C94DD410C941DBFE1
:1003E0000C9444D00C94FAC50C94CBD60C94194CB4
:1003F0000C9478E90C94E3E90C9471D10C949BCCA7
:100400000C94BEDD0C942CC60C94A5D30C94D24154
:100410000C9467800C94C6430C940DC80C940FD8B0
:100420000C9430ED0C94B9D30C943C910C94FFC512
:100430000C9463B60C9429910C9416CE0C94F3C6CC
:10044000502D53746F7020747269676765726564AC
:10045000005265706C6963617430722031009302E0
:10046000690000006900EE016900000069002601D2
:10047000B801000000007003BC000000BC00E006F2
:10048000BC000000BC00B807BC000000BC002D0888
:10049000BC00A908BC000000BC00C00D4D0100005C
:1004A0000000C00D20010000BC005311BC00000082
:1004B000BC005B12B10100000000C00DC8000000CC
:1004C0001400C00DC80000001400910E900100003F
:1004D00014005A10900100001400C00D2003000009
:1004E0000000C805C80000001400C805C8000000CE
:1004F0001400C805C80000001400DD04B0040000AA
:1005000014007505C800000014007505C80000003F
:1005100014007505C800000014009704B004000022
:10052000000070039001000014005504C800000092
:1005300014002705C800000014007003900100009B
:100540000000C00DC80000001400C00DC80000006D
:1005500014005A10C80000001400C00D90010000E3
:1005600000001704C8000000DC002705640000003C
:1005700078007505C8000000DC002006640000005B
:100580007800E006C8000000DC002006C80000007B
:10059000DC002006C8000000DC002D08C8000000B8
:1005A000000024F404D9201BC40C5C0E9804C40978
:1005B0005F0265077101F405F900FB04B30048040C
:1005C0008700C10369005803550003034500BE02BC
:1005D0003A008402310053022A0029022500040255
:1005E0002000E4011C00C8011900AF0117009801A8
:1005F0001400840113007101100061011000510109
:100600000E0043010D0036010B002B010B002001F1
:100610000B00150109000C01090003010800FB0093
:100620000800F3000800EB000700E4000600DE000D
:100630000600D8000600D2000600CC000500C70066
:100640000500C2000500BD000400B9000400B500AB
:100650000400B1000400AD000400A9000400A500DE
:100660000300A20003009F0004009B000300980009
:1006700003009500020093000300900003008D002A
:1006800002008B0003008800020086000200840044
:100690000300810002007F0002007D0002007B0059
:1006A0000200790002007700010076000200740069
:1006B000020072000100710002006F0002006D0074
:1006C00001006C0002006A0001006900020067007E
:1006D0000100660001006500010064000200620084
:1006E000010061000100600001005F0002005D0088
:1006F00001005C0001005B0001005A00010059008C
:10070000010058000100570001005600010055008B
:10071000010054000100530000005300010052008A
:10072000010051000100500001004F0001004E0087
:1007300000004E0001004D0001004C0001004B0084
:1007400000004B0001004A00010049000100480080
:10075000000048000100470001004600000046007C
:100760000100450000004500010044000100430075
:10077000000043000100420000004200010041006F
:10078000000041000100400001003F0000003F0068
:1007900001003E0000003E0001003D0000003D0061
:1007A00001003C0000003C0000003C0001003B0058
:1007B00000003B0001003A0000003A00010039004F
:1007C0000000390001003800000038000000380047
:1007D000010037000000370001003600000036003D
:1007E0000000360001003500000035000000350033
:1007F0000100340000003400000034000100330028
:10080000000033000000330001003200000032001D
:100810000000320001003100000031000000310012
:1008200001003000000030000000300001002F0007
:1008300000002F0000002F0000002F0001002E00FC
:1008400000002E0000002E0001002D0000002D00F1
:1008500000002D0000002D0001002C0000002C00E5
:1008600000002C0000002C0001002B0000002B00D9
:1008700000002B0000002B0001002A0000002A00CD
:1008800000002A0000002A000100290000002900C1
:1008900000002900000029000000290001002800B4
:1008A00000002800000028000000280000002800A8
:1008B000010027000000270000002700000027009B
:1008C000000027000100260000002600000026008E
:1008D0000000260000002600010025000000250081
:1008E0000000250000002500000025000000250074
:1008F0000100240000002400000024000000240067
:100900000000240001002300000023000000230059
:10091000000023000000230000002300000023004B
:10092000010022000000220000002200000022003E
:100930000000220000002200010021000000210030
:100940000000210000002100000021000000210023
:100950000000210001002000000020000000200015
:100960000000200000002000000020000000200007
:100970000000200001001F0000001F0000001F00F9
:1009800000001F0000001F0000001F0000001F00EB
:1009900001001E0000001E0000001E0000001E00DE
:1009A000000024F4D43050C38E20C2A24017828BA2
:1009B0007011127A910D816CD90AA861E108C758AB
:1009C0006607615143061E4B5D05C145A7041A41E8
:1009D0001104093D9803713931034036DB02653358
:1009E0009102D4305402802E1D02632CEE01752A30
:1009F000C501B028A001102781018F2564012B2497
:100A00004B01E0223401AC211F018D200D01801F1C
:100A1000FC00841EED00971DDF00B81CD200E61B11
:100A2000C600201BBC00641AB200B219A8000A1943
:100A3000A0006A189900D117910040178B00B516D5
:100A4000840031167E00B31579003A157300C7147F
:100A50006F0058146A00EE136600881363002513B4
:100A60005E00C7125B006C12570015125400C111D2
:100A7000510070114F0021114B00D61049008D100C
:100A800047004610440002104200C00F4000800F93
:100A90003E00420F3C00060F3B00CB0E3800930E89
:100AA00037005C0E3500270E3400F30D3200C10D07
:100AB0003100900D3000600D2E00320D2D00050D1F
:100AC0002C00D90C2B00AE0C2900850C29005C0CE5
:100AD0002700350C27000E0C2600E80B2400C40B61
:100AE0002400A00B23007D0B23005A0B2100390B9F
:100AF0002100180B2000F80A1F00D90A1E00BB0AAB
:100B00001E009D0A1D00800A1D00630A1C00470A82
:100B10001B002C0A1B00110A1A00F7091A00DD0934
:100B20001900C4091900AB091900920917007B09C3
:100B30001800630917004C09160036091600200931
:100B400016000A091500F5081500E0081400CC0885
:100B50001400B8081400A4081400900813007D08BD
:100B600012006B08130058081200460812003408DF
:100B70001100230811001208110001081100F007EC
:100B80001000E0071000D0071000C0071000B007E9
:100B90000F00A107100091070E0083070F007407D4
:100BA0000F0065070E0057070E0049070E003B07B0
:100BB0000D002E070E0020070D0013070D0006077D
:100BC0000D00F9060C00ED060D00E0060C00D40641
:100BD0000C00C8060C00BC060C00B0060C00A406F5
:100BE0000B0099060C008D060B0082060B007706A1
:100BF0000B006C060B0061060A0057060B004C0642
:100C00000A0042060A0038060A002E060A002406D8
:100C10000A001A060A001006090007060A00FD0568
:100C20000900F4050900EB050900E2050900D905F2
:100C30000900D0050900C7050900BE050900B50572
:100C40000800AD050800A50509009C0508009405ED
:100C500008008C050800840508007C050800740560
:100C600008006C050700650508005D0507005605CE
:100C700008004E0507004705070040050800380535
:100C80000700310507002A050700230507001C059A
:100C90000600160507000F050700080506000205F7
:100CA0000700FB040600F5040700EE040600E80454
:100CB0000600E2040700DB040600D5040600CF04AA
:100CC0000600C9040600C3040600BD040600B704FC
:100CD0000600B1040500AC040600A6040600A0044A
:100CE00005009B04060095040500900406008A0494
:100CF000050085040500800406007A0405007504DB
:100D00000500700405006B0405006604050061041D
:100D100005005C04050057040500520405004D045D
:100D2000050048040500430405003E0404003A049D
:100D3000050035040500300404002C0405002704D8
:100D40000400230405001E0404001A040400160411
:100D50000500110404000D04040009040500040446
:100D6000040000040400FC030400F8030400F4037E
:100D70000400F0030400EC030400E8030400E403AF
:100D80000400E0030400DC030400D8030400D403DF
:100D90000400D0030400CC030400C8030300C5030F
:100DA00003008908990000000052657047204275D1
:100DB000696C64009600FF84017D010000140083CB
:100DC000027D010000140084043C000000FF008C40
:100DD000000000000000000030F8FFFF00000000ED
:100DE000000000009B000000000000000000000068
:100DF000000000000000000000A51C00001800001A
:100E0000A040950484043C0500001400901F8B0052
:100E100000000000000000A00F0000000000000023
:100E2000000000800000009B0000000000000000A7
:100E3000000000000000000000000000A51C0000F1
:100E400018000020419504891B950000000042799C
:100E50002068616E64206D6F76652074686520651A
:100E6000782D00950100000074727564657220741D
:100E70006F20646966666572656E74200095010076
:100E80000000706F736974696F6E73206F7665729E
:100E90002074686520200095070000006275696C69
:100EA0006420706C6174666F726D2E2E2E2E00950C
:100EB0000000000041646A757374207468652073D3
:100EC000706163696E672020009501000000626513
:100ED000747765656E2074686520657874727564D2
:100EE00065720095010000006E6F7A7A6C65206172
:100EF0006E6420706C6174666F726D2000950700DF
:100F000000007769746820746865206B6E6F627387
:100F10002E2E2E009500000000756E646572207400
:100F2000686520706C6174666F726D202000950199
:100F3000000000616E642061207368656574206F35
:100F400066207061706572009501000000706C6130
:100F5000636564206265747765656E2074686520DA
:100F600020009507000000706C6174666F726D2040
:100F7000616E64207468652E2E2E009500000000BE
:100F80006E6F7A7A6C652E205768656E20796F7562
:100F900020617265009501000000646F6E652C2071
:100FA000707265737320746865202020202000957E
:100FB0000700000063656E74657220627574746F5B
:100FC0006E2E00891F891F6A002502000000002183
:100FD00010422063308440A550C660E77008812924
:100FE000914AA16BB18CC1ADD1CEE1EFF1311210BC
:100FF0000273325222B5529442F772D66239931874
:10100000837BB35AA3BDD39CC3FFF3DEE3622443C7
:101010003420040114E664C774A44485546AA54BC3
:10102000B528850995EEE5CFF5ACC58DD55336725B
:101030002611163006D776F6669556B4465BB77A13
:10104000A719973887DFF7FEE79DD7BCC7C448E5E7
:10105000588668A7784008611802282338CCC9ED63
:10106000D98EE9AFF9488969990AA92BB9F55AD4FB
:101070004AB77A966A711A500A333A122AFDDBDCB3
:10108000CBBFFB9EEB799B588B3BBB1AABA66C8707
:101090007CE44CC55C222C033C600C411CAEED8F03
:1010A000FDECCDCDDD2AAD0BBD688D499D977EB69B
:1010B0006ED55EF44E133E322E511E700E9FFFBE53
:1010C000EFDDDFFCCF1BBF3AAF599F788F8891A926
:1010D00081CAB1EBA10CD12DC14EF16FE18010A1FD
:1010E00000C230E3200450254046706760B9839801
:1010F00093FBA3DAB33DC31CD37FE35EF3B102904D
:1011000012F322D2323542145277625672EAB5CBCC
:10111000A5A89589856EF54FE52CD50DC5E234C39C
:1011200024A01481046674476424540544DBA7FAA0
:10113000B79987B8975FE77EF71DC73CD7D326F2EC
:10114000369106B01657667676154634564CD96DEC
:10115000C90EF92FE9C899E9898AB9ABA94458653C
:101160004806782768C018E1088238A3287DCB5C40
:10117000DB3FEB1EFBF98BD89BBBAB9ABB754A548C
:101180005A376A167AF10AD01AB32A923A2EFD0F0C
:10119000ED6CDD4DCDAABD8BADE89DC98D267C07DC
:1011A0006C645C454CA23C832CE01CC10C1FEF3EE0
:1011B000FF5DCF7CDF9BAFBABFD98FF89F176E362C
:1011C0007E554E745E932EB23ED10EF01E202053FB
:1011D00061696C66697368204669726D77617265D2
:1011E000200020202020202020202020202020201F
:1011F0002020202020200020202020204D656E640B
:10120000656C2D52414D505320202000506F727458
:10121000656420746F2052414D50532046726F6DAB
:10122000005361696C666973682076372E372072C7
:10123000303132333420002F20202043004320203F
:10124000202000200054686973206D656E7520634E
:10125000616E206D616B6500796F757220626F74CD
:1012600020696E6F70657261626C652E00507265E8
:10127000737320555020746F2070726F63656564BE
:101280002E00536176696E672E2E2E005344206324
:10129000617264207772697465206661696C656447
:1012A00000656570726F6D5F64756D702E62696E3A
:1012B0002066696C65616C72656164792065786926
:1012C00073747300526573746F72696E672E2E2E7D
:1012D0000052656164206661696C65643B20454528
:1012E00050524F4D206D617920626520636F72729C
:1012F00075707400656570726F6D5F64756D702ECA
:1013000062696E2066696C656E6F7420666F756EBB
:10131000640045726173696E672E2E2E002A20507C
:1013200072657373200078206D6F72652100202034
:10133000202000010049033600FF006B00D100A00F
:1013400000B800D500A6000A0199003F018E007484
:10135000018400A9017C00DE01740013026C0048C6
:101360000265007D025D00B2025600E7024E001CDD
:1013700003460051033D0086033200BB032200F008
:10138000030300D0FEC0FF18FFD0FF63FFE0FFB1F2
:10139000FFF0FF0000000052001000A4002000F841
:1013A0000030004D014000A2015000F70160004CE8
:1013B000027000A0028000F30290004503A0009795
:1013C00003B000E903C0003B04D0008D04E000E05E
:1013D00004F0003305000187051001DB0520013012
:1013E000063001DA065001456C61707365643A207D
:1013F000202020203030306830306D00207365634D
:10140000730054696D65204C6566743A2020203065
:1014100030306830306D005A506F733A20202020F1
:101420002020202020202020202020004175746FC3
:101430002D6C6576656C2020302E303030206D6D3F
:10144000004175746F2D6C6576656C20696E616303
:101450007469766520004175746F2D6C6576656CD6
:10146000206661696C65640A496E636F6D706C65B6
:1014700074652070726F62696E67004175746F2DBC
:101480006C6576656C206661696C65640A426164AE
:101490002070726F62696E6720706F696E7473007E
:1014A0004175746F2D6C6576656C206661696C653D
:1014B000640A546F6F20666172206F7574206F66C6
:1014C000206C6576656C006265747765656E20706A
:1014D000726F6265207074732E004D6178206865AC
:1014E00069676874206368616E6765004175746F31
:1014F0002D6C6576656C205A2044656C74610055CE
:1015000041525431002020555342005365726961A5
:101510006C20492F4F004920616D20612052657079
:101520006C696361746F722E202054686973206245
:1015300075696C6420697320666F72202020616E6B
:101540006F7468657220626F742E205365653A204F
:1015500020206D616B6572626F742E636F6D2F68F2
:10156000656C700054686973206973206E6F742015
:10157000746865207833672076657273696F6E20B2
:101580004920776F726B2062657374207769746885
:101590002E20466F722068656C70207365653A2056
:1015A0006D616B6572626F742E636F6D2F68656C11
:1015B0007020202000457261736520456570726F50
:1015C0006D005344202D3E20456570726F6D0045BF
:1015D0006570726F6D202D3E20534400456570721A
:1015E0006F6D005072696E742054696D653A2020E9
:1015F00020682030306D004C617374205072696E29
:10160000743A20202020682030306D004C696665D7
:1016100074696D653A202020202020682030306DCC
:1016200000526573756D696E6720706F73697469B8
:101630006F6E2E2E2E00436C656172696E6720629C
:1016400075696C642E2E2E20202000447261696E14
:10165000696E6720706970656C696E652E2E2E004C
:101660004C656176696E672070617573652E2E2EEC
:10167000202020200043616E63656C6C696E6720DA
:101680007072696E742E2E2E2000456E746572691C
:101690006E672070617573652E2E2E202020004C01
:1016A000696E653A202020203130303030303030C3
:1016B00030302B005061757365206174205A506F73
:1016C000733A2000506C6174666F726D2054656DC2
:1016D000703A202020004C6566742054656D703A85
:1016E000200052696768742054656D703A200020AC
:1016F0004F66667365743A200055702F446E2F4C08
:101700006566742F4D20746F205365740055702FDB
:10171000446E2F522F4C2F4D20746F205365740050
:1017200050726F66696C65204E616D653A00536159
:10173000766520546F2050726F66696C650043684F
:10174000616E6765204E616D6500446973706C6100
:101750007920436F6E66696700526573746F7265B6
:101760000052657365743A20707265737320434547
:101770004E5445520046696C2E20547269703A00EE
:1017800046696C616D656E743A00547269703A0016
:101790004C6966653A0046696C616D656E74204FF0
:1017A000646F6D657465720048656174657273205D
:1017B0004F66660043616E63656C205072696E749B
:1017C000005072696E742053746174697374696334
:1017D00073004261636B20746F204D6F6E69746F8C
:1017E00072004C696E653A202020202020202020A5
:1017F000202020202020006D006D6D00486F6D6559
:10180000204F6666736574730050726F66696C650D
:10181000730046696C616D656E743A20202020204B
:1018200020302E306D6D0046696C616D656E743AC6
:10183000005A506F736974696F6E3A005072696E26
:10184000742054696D653A20202020206820206D86
:101850000054656D706572617475726520726561A2
:1018600064732020206F7574206F662072616E672C
:10187000652E20202020202020436865636B207780
:101880006972696E672E0054656D7065726174755A
:101890007265207265616473202020617265206624
:1018A00061696C696E672E20202020202020204353
:1018B0006865636B20776972696E672E0054656D89
:1018C00070657261747572652064726F7070696E94
:1018D00067436865636B20776972696E672E004E97
:1018E0006F742068656174696E672070726F7065CF
:1018F000726C79436865636B20776972696E672ED5
:101900000054656D70206C696D6974207265616347
:101910006865642E2053687574646F776E206F72EB
:1019200020726573746172742E00506C6174666FFE
:10193000726D204661696C7572652120202000540B
:101940006F6F6C2031204661696C757265212020B3
:1019500020202000546F6F6C2030204661696C7528
:1019600072652120202020200045787472756465FE
:1019700072204661696C75726521202020004865DF
:1019800061746572732073687574646F776E206418
:101990007565746F20696E61637469766974790026
:1019A0004D792074656D706572617475726520770C
:1019B000617320206368616E676564206578746573
:1019C000726E616C6C792E20526573656C65637400
:1019D0002066696C616D656E742020206D656E7582
:1019E00020746F2074727920616761696E2E0077B0
:1019F000616974696E67200020204E4120202020FC
:101A0000006572726F7221002843616E6E6F7420E0
:101A10005072696E7420436F707929005072696E3C
:101A20007420416E6F7468657220436F7079004D49
:101A300061696E204D656E750053657420436F6F4C
:101A40006C696E672046616E204F46460053657490
:101A500020436F6F6C696E672046616E204F4E2089
:101A6000004368616E67652054656D7065726174CE
:101A7000757265004368616E6765205370656564C3
:101A8000005061757365206174205A506F73004473
:101A90006974746F205072696E74696E67004E2F9E
:101AA0004100502D53746F7020436F6E74726F6CD1
:101AB00000436865636B2053442052656164730082
:101AC000457874727564657220486F6C640050616B
:101AD00075736520776974682048656174004F7676
:101AE00065727269646520476354656D7000484291
:101AF0005020696E7374616C6C656400416363654A
:101B00006C65726174696F6E0045786974204D650B
:101B10006E7500536F756E640045787472756465F8
:101B20007220436F756E7400426F74205374617439
:101B30006973746963730043616C6962726174658F
:101B4000204E6F7A7A6C657300526573746F72659C
:101B50002053657474696E67730047656E657261C2
:101B60006C2053657474696E6773005072656865A4
:101B700061742053657474696E6773004C65766593
:101B80006C204275696C6420506C61746500456E10
:101B900061626C65205374657070657273202000FB
:101BA00044697361626C652053746570706572730B
:101BB0000056657273696F6E20496E666F726D6153
:101BC00074696F6E0046696C616D656E74204C6F50
:101BD0006164696E6700486F6D65204178657300C8
:101BE0004A6F67204D6F6465004D6F6E69746F7248
:101BF000204D6F6465005574696C69746965730084
:101C000050726568656174005072696E7420667206
:101C10006F6D20534400492074696D6564206F75B1
:101C200074207768696C65202020617474656D701C
:101C300074696E6720746F206865617420206D7907
:101C400020706C6174666F726D2E00492074696D2E
:101C50006564206F7574207768696C652020206149
:101C60007474656D7074696E6720746F2068656147
:101C70007420206D792065787472756465722E0009
:101C8000556E61626C6520746F20726561642053CB
:101C900044202020636172642070617274697469E9
:101CA0006F6E73206F76657232474220696E2073C3
:101CB000697A652E2020466F726D617461732046CB
:101CC00041542D3136206F72202D33322E00556E47
:101CD00061626C6520746F2072656164207468694C
:101CE00073205344206361726420666F726D617467
:101CF0002E2020202020466F726D61742061732099
:101D00004641542D3136206F72204641542D3332D6
:101D10002E00534420636172642072656164206503
:101D200072726F722E20546F6F206D616E79204336
:101D30005243206572726F72732E42616420636138
:101D4000726420636F6E7461637473206F72656C6C
:101D5000656374726963616C206E6F6973652E00D0
:101D600053442063617264207265616420657272FD
:101D70006F720053442063617264206E6F74207030
:101D8000726573656E7400534420636172642069E8
:101D90007320656D7074790043616E6E6F74206F8F
:101DA00070656E207468652066696C650053442018
:101DB00063617264207265616473206172652020C2
:101DC000206E6F7420676F696E672077656C6C2E6C
:101DD00020205472796120646966666572656E744C
:101DE00020636172640049276D20616C72656164D3
:101DF00079206275696C64696E6700436F6C64205A
:101E0000506175736500556E706175736500506142
:101E100075736520200043616E63656C206C6F6193
:101E2000642F756E6C6F61643F0043616E63656C17
:101E30002074686973207072696E743F00736574F2
:101E400074696E67733F00526573746F72652066C4
:101E50006163746F727900506C6174666F726D208B
:101E600020202020202020202020004C6566742087
:101E700045787472756465722020202020200052FD
:101E800069676874204578747275646572202020D3
:101E9000202000457874727564657220202020200F
:101EA0002020202020200045787472756465723AE5
:101EB0002020202D2D2D2F2D2D2D4300506C6174B1
:101EC000666F726D3A2020202D2D2D2F2D2D2D4344
:101ED000004C2045787472756465723A202D2D2D62
:101EE0002F2D2D2D43005220457874727564657234
:101EF0003A202D2D2D2F2D2D2D4300202D2D250069
:101F000048656174696E673A2020202020202020D7
:101F1000202020200048656174696E673A00203CEB
:101F20002D592020284D656E752920202020202045
:101F3000202000203C2D582020284D656E7529203A
:101F4000205A2D3E2020200020202020202020204C
:101F5000582D20202020202020202020002020205C
:101F6000202020284D656E75292020592D3E2020E7
:101F700020002020202020202020582B202020203E
:101F80002020202020200020202020204A6F6720B1
:101F90006D6F64652020202020202000556E6C6F1E
:101FA0006164206C65667400556E6C6F61642072AC
:101FB0006967687400556E6C6F6164004C6F616492
:101FC000004C6F6164206C656674004C6F61642026
:101FD00072696768740035206D696E757465207468
:101FE000696D656F757420686173656C6170736588
:101FF000642E2020507265737320746865206365B9
:102000006E74657220627574746F6E20746F202018
:10201000202066696E6973682E00426567696E20CC
:102020006C6F6164696E67206F7220202020756E6E
:102030006C6F6164696E672E2050726573732074D3
:10204000686563656E74657220627574746F6E2066
:102050007768656E202066696E69736865642E0016
:1020600045787472756465727320617265206E6F55
:102070007420202068656174696E672E2020436893
:1020800065636B2074686520776972696E672E00DE
:10209000592041786973204C696E65005820417859
:1020A0006973204C696E6500594553004E4F2000FE
:1020B000446F6E650053656C65637420626573746C
:1020C000206C696E65733A00457874727564657248
:1020D00000506C6174666F726D005475726E2048AA
:1020E000656174657273204F464600537461727463
:1020F0002050726568656174696E67004672656537
:10210000205352414D20004F4646004F4E200000C4
:102110009937CD37BF3BC6433944194CDA4D74511A
:10212000F168FF7C6780278CE38CDA8D038F29911F
:10213000D192C2AEB2AF1FB7B6B761B84EBAF5BE54
:102140001DBFE7C1CFC58CEF5DF3EDF454F6CAF6C1
:102150001BF829F8E4E4FDE185EC91E201C08193EC
:10216000EF3FF907E0F3D9F311241FBECFEFD1E21F
:10217000DEBFCDBF00E00CBF17E0A0E0B2E0EEEAAA
:10218000FBEF01E00BBF02C007900D92AC3DB10721
:10219000D9F71DE1ACEDB7E001C01D92A434B10741
:1021A000E1F711E2C4E5D1E200E006C0229701099F
:1021B000FE010BBF0E941FFDC031D10780E0080760
:1021C000A9F70E9422440C94D5FD0C940000A0E3D2
:1021D000B0E0EDEEF0E10C94EAFC298F3A8F4B8FE2
:1021E0005C8F6D8F7E8F8F8F98A3A98ABA8ACB8AD6
:1021F000DC8AED8AFE8A0F8B188F098D1A8D2B8D44
:102200003C8D09A31AA32BA33CA3680179018FEF8E
:102210009FEFA0E0B0E0C822D922EA22FB22890188
:102220002227332709A71AA72BA73CA709891A89B0
:102230002B893C890DA31EA32FA338A74801590160
:1022400088229922AA22BB22290166247724C5016B
:10225000B401A70196010E9459FC6DA77EA78FA724
:1022600098ABC301B2010E9459FC6B017C01C5010E
:10227000B40129A53AA54BA55CA50E9459FC4B01C8
:102280005C01C301B2010E9459FCAB01BC01C80C46
:10229000D91CEA1CFB1C0DA51EA52FA538A9C90138
:1022A000AA27BB27C80ED91EEA1EFB1EC814D904D4
:1022B000EA04FB0420F4405050406F4F7F4FC701A9
:1022C000AA27BB27840F951FA61FB71F8D839E8348
:1022D000AF83B8877601DD24CC244DA55EA56FA51C
:1022E00078A960707070C40ED51EE61EF71EC982F4
:1022F000DA82EB82FC821C2D0A818B804C808D87D8
:102300008E818E878F818F878885888B2D893E89E6
:102310004F89588D69A17AA18BA19CA10E9459FC7B
:102320006B017C012D8D3E8D4F8D58A16DA17EA13D
:102330008FA198A50E9459FCDC01CB01C80ED91EC3
:10234000EA1EFB1E8D859E85AF85B8898C0D9D1D6F
:10235000AE1DBF1D8D879E87AF87B88B682F7E858A
:10236000212F302F482D542D8F859889E096E0E15C
:102370000C9406FDCF92DF92EF92FF920F93CF93D2
:10238000DF93CDB7DEB760970FB6F894DEBF0FBE10
:10239000CDBF002309F45AC029873A874B875C8751
:1023A0006D877E878F87988B80E2801B4D855E8549
:1023B0006F8578891816B4F01D821E821F821886D8
:1023C000992787FD9095909581959F4F04C07695AC
:1023D0006795579547958A95D2F749835A836B83BA
:1023E0007C832CC06A017B01002E04C0F694E79424
:1023F000D794C7940A94D2F7CD82DE82EF82F88612
:102400006A017B0104C0CC0CDD1CEE1CFF1C8A950C
:10241000D2F7D701C60149855A856B857C8504C0F2
:1024200076956795579547950A95D2F7842B952B06
:10243000A62BB72B89839A83AB83BC8329813A81EE
:102440004B815C816D817E818F81988560960FB60E
:10245000F894DEBF0FBECDBFDF91CF910F91FF90FB
:10246000EF90DF90CF900895CF92DF92EF92FF929E
:102470000F93CF93DF93CDB7DEB760970FB6F89485
:10248000DEBF0FBECDBF002309F45AC029873A87AB
:102490004B875C876D877E878F87988B80E2801B58
:1024A00049855A856B857C851816B4F019821A8285
:1024B0001B821C82992787FD9095909581959F4F4F
:1024C00004C0440F551F661F771F8A95D2F74D83AE
:1024D0005E836F8378872CC06A017B01002E04C065
:1024E000CC0CDD1CEE1CFF1C0A94D2F7C982DA82E8
:1024F000EB82FC826A017B0104C0F694E794D794D6
:10250000C7948A95D2F7D701C6014D855E856F8540
:10251000788904C0440F551F661F771F0A95D2F7AC
:10252000842B952BA62BB72B8D839E83AF83B887E7
:1025300029813A814B815C816D817E818F81988573
:1025400060960FB6F894DEBF0FBECDBFDF91CF917E
:102550000F91FF90EF90DF90CF9008950F93CF935E
:10256000DF93CDB7DEB760970FB6F894DEBF0FBE2E
:10257000CDBF002309F456C029873A874B875C8773
:102580006D877E878F87988B20E2201B8D859E85A7
:10259000AF85B889AC01BD011216B4F0770F440BBA
:1025A000542FBA014D835E836F837887332727FDCD
:1025B0003095309521953F4F04C0B595A7959795D7
:1025C00087952A95D2F722C0002E04C0759567958D
:1025D000579547950A94D2F74D835E836F8378872A
:1025E00004C0880F991FAA1FBB1F2A95D2F74985DF
:1025F0005A856B857C8504C0769567955795479578
:102600000A95D2F7842B952BA62BB72B89839A8317
:10261000AB83BC8329813A814B815C816D817E8152
:102620008F81988560960FB6F894DEBF0FBECDBF40
:10263000DF91CF910F910895A8E4B0E0E2E2F3E1D9
:102640000C94E9FCF50129A33AA34BA35CA36DA369
:102650007EA38FA398A7A98EFA8FCB8EDC8EED8EEA
:10266000FE8E0F8F18A38DA09EA0AFA0B8A4B7FEBA
:1026700067C02195B1E0121608F0B0E03195A1E0F5
:10268000131608F0A0E0B32EBB1ABB2D8824839448
:102690003B1508F08824A829419531E0141608F06C
:1026A00030E0B42EBA1AAB2D882483944B1508F071
:1026B00088243829519541E0151608F040E0452E50
:1026C000431A31E0541508F030E0432B619531E0B6
:1026D000161608F030E0862E841A41E0681508F0DE
:1026E00040E0342B719541E0171608F040E0572F79
:1026F000531B31E0751708F030E0432B819531E032
:10270000181608F030E0682F641B462F61E084172C
:1027100008F060E0362B9195931B29A3BAA3ABA3D5
:102720004CA28DA25EA34FA398A78FEF9FEFAFEFB0
:10273000BFEF25968CAF9DAFAEAFBFAF259706C05C
:1027400025961CAE1DAE1EAE1FAE25978D8D9E8D9F
:10275000AF8DB8A1B7FF68C025962CAD3DAD4EAD8D
:102760005FAD2597209530954095509525962CAFD7
:102770003DAF4EAF5FAF2597E19581E01E1608F0A3
:1027800080E0F19591E01F1608F090E04F2F481B74
:1027900081E0F41708F080E0982BC19481E01C14CC
:1027A00008F080E06C2D691B91E0C61608F090E0FF
:1027B000892BD19491E01D1408F090E05D2D581BF9
:1027C00081E0D51608F080E0982BE19481E01E149A
:1027D00008F080E03E2D391B91E0E31608F090E010
:1027E000892BF19491E01F1408F090E02F2D281B05
:1027F00081E0F21608F080E0982B019581E0101638
:1028000008F080E0702F791B972F71E0091708F00E
:1028100070E0872B1195181BE98F4A8F6B8F5C8FA7
:102820003D8F2E8F9F8F18A3798D6A8D5B8D4C8D78
:102830003D8D2E8D9F8D88A1E9A1E98BEAA1EA8BC0
:10284000EBA1EB8BECA1EC8BEDA1ED8BEEA1EE8B74
:10285000EFA1EF8BE8A5E88F79876A875B874C87C4
:102860003D872E879F87888B89849A84AB84BC841C
:102870008D859E85AF85B889E988FA880B891C8982
:10288000EDAAFEAA0FAB18AFCD88DE88EF88F88CD2
:102890000097A105B10509F0BFC3C814D904EA0423
:1028A000FB0408F04EC100E0801600E0900601E055
:1028B000A00600E0B00660F41FEF81169104A104A9
:1028C000B10409F098F480E090E0A0E0B0E017C017
:1028D00020E0821620E0920620E0A20621E0B20667
:1028E00050F480E190E0A0E0B0E009C088E090E022
:1028F000A0E0B0E004C088E190E0A0E0B0E0B50165
:10290000A401082E04C076956795579547950A94BB
:10291000D2F7FA01EF5AFC4F208140E250E060E02C
:1029200070E0481B590B6A0B7B0B421B5109610974
:1029300071094115510561057105A1F1042E04C00D
:10294000880C991CAA1CBB1C0A94D2F7970186011B
:10295000042E04C0000F111F221F331F0A94D2F748
:1029600080E290E0841B950BCDA8DEA8EFA8F8AC20
:1029700004C0F694E794D794C7948A95D2F7C02AF6
:10298000D12AE22AF32A0DA91EA92FA938AD04C025
:10299000000F111F221F331F4A95D2F70DAB1EAB3C
:1029A0002FAB38AF25016624772495018401207070
:1029B000307009AB1AAB2BAB3CABC701B601A3011E
:1029C00092010E94ABFC2DA73EA74FA758AB69A769
:1029D0007AA78BA79CA7C701B601A30192010E9409
:1029E000ABFCCA01B90129A93AA94BA95CA90E946B
:1029F00059FCAB01BC0109A51AA52BA53CA5780182
:102A0000DD24CC240DA91EA92FA938ADC901AA2700
:102A1000BB27C82AD92AEA2AFB2A0DA51EA52FA55D
:102A200038A9C416D506E606F70638F50150104059
:102A30002040304009A71AA72BA73CA7C80CD91CD7
:102A4000EA1CFB1CC814D904EA04FB04D0F0C41629
:102A5000D506E606F706A8F40DA51EA52FA538A9EC
:102A6000025010402040304009A71AA72BA73CA7CE
:102A7000C80CD91CEA1CFB1C04C009A71AA72BA769
:102A80003CA7C41AD50AE60AF70AC701B601A30192
:102A900092010E94ABFC2DA73EA74FA758AB69AF90
:102AA0007AAF8BAF9CAFC701B601A30192010E9420
:102AB000ABFCCA01B90129A93AA94BA95CA90E949A
:102AC00059FC6B017C0149AD5AAD6BAD7CAD9A01EF
:102AD000112700274DA95EA96FA978AD60707070AD
:102AE000042B152B262B372B8DA59EA5AFA5B8A99A
:102AF0000C151D052E053F05C0F40197A109B1096C
:102B0000080D191D2A1D3B1D081519052A053B0531
:102B100060F00C151D052E053F0538F48DA59EA50A
:102B2000AFA5B8A90297A109B10909A51AA52BA5B6
:102B30003CA57801DD24CC24C82AD92AEA2AFB2A1C
:102B4000B9C481149104A104B10451F461E070E0AE
:102B500080E090E0A50194010E94ABFC49015A017C
:102B600010E0811610E0910611E0A10610E0B10618
:102B700060F42FEF82169104A104B10409F098F4D7
:102B800080E090E0A0E0B0E017C030E0831630E0D5
:102B9000930630E0A30631E0B30650F480E190E004
:102BA000A0E0B0E009C088E090E0A0E0B0E004C0A0
:102BB00088E190E0A0E0B0E0B501A401082E04C0D7
:102BC00076956795579547950A94D2F7FA01EF5A8B
:102BD000FC4F2081AC01BD01420F511D611D711DD3
:102BE00080E290E0A0E0B0E0841B950BA60BB70B51
:102BF00051F4C818D908EA08FB08F1E04F2E512C0F
:102C0000612C712C28C1082E04C0880C991CAA1CA8
:102C1000BB1C0A94D2F797018601042E04C0369596
:102C20002795179507950A94D2F709AB1AAB2BABEA
:102C30003CAB97018601082E04C0000F111F221F14
:102C4000331F0A94D2F70DA71EA72FA738ABEDA804
:102C5000FEA80FA918AD04C016950795F794E79440
:102C60004A95D2F7B801A7010DA51EA52FA538A931
:102C7000042B152B262B372B0DA71EA72FA738AB00
:102C8000EDA8FEA80FA918AD04C0EE0CFF1C001F94
:102C9000111F8A95D2F7EDAAFEAA0FAB18AF250136
:102CA00066247724950184012070307009AF1AAF33
:102CB0002BAF3CAF69A97AA98BA99CA9A30192016A
:102CC0000E94ABFC29A73AA74BA75CA76B017C012C
:102CD00069A97AA98BA99CA9A30192010E94ABFCC6
:102CE000CA01B90129AD3AAD4BAD5CAD0E9459FCAA
:102CF000AB01BC017601DD24CC240DA51EA52FA5BA
:102D000038A9C901AA27BB27C82AD92AEA2AFB2A37
:102D100009A51AA52BA53CA5C416D506E606F706F7
:102D200038F5015010402040304009AB1AAB2BABB6
:102D30003CABC80CD91CEA1CFB1CC814D904EA041F
:102D4000FB04D0F0C416D506E606F706A8F409A5DC
:102D50001AA52BA53CA5025010402040304009ABDD
:102D60001AAB2BAB3CABC80CD91CEA1CFB1C04C037
:102D700009AB1AAB2BAB3CABC41AD50AE60AF70A6F
:102D8000C701B601A30192010E94ABFC29A73AA793
:102D90004BA75CA721966CAF7DAF8EAF9FAF2197FD
:102DA000C701B601A30192010E94ABFCCA01B9019F
:102DB00029AD3AAD4BAD5CAD0E9459FC8B019C0135
:102DC00021964CAD5DAD6EAD7FAD2197DA019927AF
:102DD00088274DA55EA56FA578A960707070842BBB
:102DE000952BA62BB72B49A55AA56BA57CA58017BB
:102DF0009107A207B307F0F4415050406040704083
:102E0000880D991DAA1DBB1D88159905AA05BB052E
:102E100088F080179107A207B30760F449A55AA567
:102E20006BA57CA54250504060407040880D991DB4
:102E3000AA1DBB1D6C017D01C01AD10AE20AF30A6A
:102E400009A91AA92BA93CA9380155244424442ACC
:102E5000552A662A772A8501222733270DA71EA720
:102E60002FA738AB950184012070307009AF1AAFDD
:102E70002BAF3CAFC701B6012DA53EA54FA558A964
:102E80000E94ABFC29A73AA74BA75CA769AB7AAB1A
:102E90008BAB9CABC701B6012DA53EA54FA558A98C
:102EA0000E94ABFCCA01B90129AD3AAD4BAD5CAD96
:102EB0000E9459FCAB01BC0109A91AA92BA93CA984
:102EC0007801DD24CC240DA91EA92FA938ADC90194
:102ED000AA27BB27C82AD92AEA2AFB2A09A51AA5A4
:102EE0002BA53CA5C416D506E606F70638F5015015
:102EF00010402040304009AB1AAB2BAB3CABC80CA8
:102F0000D91CEA1CFB1CC814D904EA04FB04D0F049
:102F1000C416D506E606F706A8F409A51AA52BA53A
:102F20003CA5025010402040304009AB1AAB2BABFF
:102F30003CABC80CD91CEA1CFB1C04C009AB1AAB87
:102F40002BAB3CABC41AD50AE60AF70AC701B60197
:102F50002DA53EA54FA558A90E94ABFC29A73AA7CD
:102F60004BA75CA721966CAF7DAF8EAF9FAF21972B
:102F7000C701B6012DA53EA54FA558A90E94ABFCDF
:102F8000CA01B90129AD3AAD4BAD5CAD0E9459FC07
:102F90008B019C0121964CAD5DAD6EAD7FAD21974F
:102FA000DA01992788274DA95EA96FA978AD6070CD
:102FB0007070842B952BA62BB72B49A55AA56BA512
:102FC0007CA580179107A207B307D0F44150504069
:102FD00060407040880D991DAA1DBB1D881599057C
:102FE000AA05BB0568F080179107A207B30740F454
:102FF00049A55AA56BA57CA5425050406040704041
:1030000009A91AA92BA93CA97801DD24CC24C42A3A
:10301000D52AE62AF72A51C2C816D906EA06FB06BF
:1030200008F438C2803010E0910711E0A10710E0E9
:10303000B10758F48F3F9105A105B10509F090F44F
:1030400000E010E020E030E016C0803020E0920781
:1030500020E0A20721E0B20750F400E110E020E0F8
:1030600030E009C008E010E020E030E004C008E1F2
:1030700010E020E030E0AC01BD01002E04C07695E8
:103080006795579547950A94D2F7FA01EF5AFC4F86
:103090004081040F111D211D311D40E250E060E010
:1030A00070E0401B510B620B730BA1F48C159D0556
:1030B000AE05BF0508F4F5C1EDA8FEA80FA918AD2F
:1030C000442455243201E814F9040A051B0508F0CC
:1030D000EBC1E3C1342E2C013D0104C0440C551C4E
:1030E000661C771C4A95D2F7D501C401002E04C096
:1030F000B695A795979587950A94D2F7482A592AA5
:103100006A2A7B2AA5019401032C04C0220F331FD5
:10311000441F551F0A94D2F729AF3AAF4BAF5CAFAB
:10312000B701A601002E04C076956795579547957F
:103130000A94D2F749AB5AAB6BAB7CABC701B60173
:10314000032C04C0660F771F881F991F0A94D2F7BB
:103150006DA77EA78FA798AB8DA99EA9AFA9B8AD83
:1031600004C0B695A795979587950A95D2F74DA572
:103170005EA56FA578A9482B592B6A2B7B2B4DA7F1
:103180005EA76FA778AB4301AA24BB2493018201F9
:103190002070307021960CAF1DAF2EAF3FAF21973E
:1031A00069A97AA98BA99CA9A50194010E94ABFCED
:1031B00029A73AA74BA75CA76B017C0169A97AA94B
:1031C0008BA99CA9A50194010E94ABFCCA01B9017D
:1031D00021962CAD3DAD4EAD5FAD21970E9459FCBF
:1031E000DC01CB017601DD24CC240DA51EA52FA585
:1031F00038A9A90166277727C42AD52AE62AF72AFB
:1032000009A51AA52BA53CA5C816D906EA06FB06F2
:1032100038F5015010402040304009AB1AAB2BABC1
:103220003CABC40CD51CE61CF71CC414D504E60446
:10323000F704D0F0C816D906EA06FB06A8F409A5DB
:103240001AA52BA53CA5025010402040304009ABE8
:103250001AAB2BAB3CABC40CD51CE61CF71C04C052
:1032600009AB1AAB2BAB3CABC81AD90AEA0AFB0A6A
:10327000C701B601A50194010E94ABFC29A73AA79A
:103280004BA75CA729966CAF7DAF8EAF9FAF2997F8
:10329000C701B601A50194010E94ABFCCA01B901A6
:1032A00021962CAD3DAD4EAD5FAD21970E9459FCEE
:1032B0004B015C0129964CAD5DAD6EAD7FAD29979C
:1032C0009A01112700278DA59EA5AFA5B8A9A070CA
:1032D000B070082B192B2A2B3B2B89A59AA5ABA5DF
:1032E000BCA5081519052A053B05E0F40197A109BD
:1032F000B109040D151D261D371D041515052605DC
:10330000370580F0081519052A053B0558F489A5ED
:103310009AA5ABA5BCA50297A109B109040D151D7D
:10332000261D371DB901A801481959096A097B09E9
:103330004DA75EA76FA778AB09A91AA92BA93CA92D
:103340007801DD24CC24C82AD92AEA2AFB2AFFEFF7
:103350008F2EFFEF9F2EA12CB12C8C209D20AE2014
:10336000BF2087012227332709A71AA72BA73CA72D
:1033700049AC5AAC6BAC7CAC2FEF3FEF40E050E077
:10338000422253226422752229AD3AAD4BAD5CAD89
:103390008A012227332709AB1AAB2BAB3CABC50103
:1033A000B401A30192010E9459FC69AF7AAF8BAFBF
:1033B0009CAFC501B40129A93AA94BA95CA90E94F7
:1033C00059FC4B015C0169A57AA58BA59CA5A301BD
:1033D00092010E9459FC2B013C0169A57AA58BA59D
:1033E0009CA529A93AA94BA95CA90E9459FCAB014B
:1033F000BC01840C951CA61CB71C09AD1AAD2BADE5
:103400003CADC901AA27BB27880E991EAA1EBB1E68
:1034100084149504A604B70420F4405050406F4F24
:103420007F4FC501AA27BB27840F951FA61FB71F73
:103430000DA51EA52FA538A9081719072A073B07B0
:1034400018F180179107A207B307A1F55401992439
:10345000882489AD9AADABADBCADA070B070880EBC
:10346000991EAA1EBB1E4DA95EA96FA978AD032C9B
:1034700004C0440F551F661F771F0A94D2F74815E2
:1034800059056A057B05B0F40894C108D108E10824
:10349000F10810C0442455243201CC24DD247601E7
:1034A0000CC044245524320181E0C82ED12CE12CDB
:1034B000F12C03C0442455243201FE01319688E0EA
:1034C000DF011D928A95E9F7C982DA82EB82FC82DC
:1034D0004D825E826F8278862C2D3A814B815C8191
:1034E000642D7E818F8198852596ECACFDAC0EAD68
:1034F0001FAD2597E114F1040105110509F456C02B
:103500002195E1E0121608F0E0E03195F1E01316A4
:1035100008F0F0E0032F0E1BE1E0301708F0E0E0C8
:10352000FE2B4195E1E0141608F0E0E0142F1F1B7C
:1035300031E0411708F030E0E32B5195F1E015162A
:1035400008F0F0E0B52FBE1B31E05B1708F030E06B
:10355000F32B6195E1E0161608F0E0E0462E4F1AD5
:1035600031E0641508F030E0E32B7195F1E01716B7
:1035700008F0F0E0A72FAE1B31E07A1708F030E03A
:10358000F32B8195E1E0181608F0E0E0F82EFF1A21
:10359000FF2D31E08F1508F030E0E32B9195302FAF
:1035A000412F5B2F642D7A2F8F2F9E1BC85BDF4F1F
:1035B000E1E10C9405FDFA01DC0102C005900D92D9
:1035C00021503040D8F708958091460A882351F45D
:1035D0008091450A8F5F8093450A853018F081E01D
:1035E0008093460A089581E00E9497498DED9AE004
:1035F00060E00E94604908950E94F31A8FEF60E036
:103600000E941D8810923E0810923D0810924008BA
:1036100010923F0810924308109244080E943A40CA
:103620000895F89420913D0830913E0880913B0820
:1036300090913C08821B930B789408950F931F93ED
:10364000CF93DF93EC018B0180E39BE00E9481E24A
:103650001092330B1092340B80E39BE0BE010E946A
:1036600053E280E39BE0B8010E9453E2E091C20B79
:10367000FF27E7FDF095EE0FFF1FEC54F44F80811C
:1036800091812BE08033920739F088EA9BE060E378
:103690007BE00E946FBF02C00E94C8E281E080937D
:1036A0008F0BDF91CF911F910F91089510928F0B87
:1036B000E091C20BFF27E7FDF095EE0FFF1FEC54E2
:1036C000F44F808191812BE08033920721F488EAC6
:1036D0009BE00E9425C0E091C20BFF27E7FDF0951B
:1036E000EE0FFF1FEC54F44F80819181DC01ED91CE
:1036F000FC910480F581E02D199508958091520484
:103700000895CF92DF92EF92FF920F931F93CF9382
:10371000DF93CDB7DEB7A0970FB6F894DEBF0FBE2C
:10372000CDBF8C018091480A882309F47BC0CE016B
:103730000D960E943F82C80160E070E00E943B4EFF
:10374000FC01C080D180E280F380CE010D9660E064
:1037500070E00E943B4EFC0180819181A281B38187
:10376000C81AD90AEA0AFB0AC982DA82EB82FC8209
:10377000C80161E070E00E943B4EFC01C080D18036
:10378000E280F380CE010D9661E070E00E943B4E36
:10379000FC0180819181A281B381C81AD90AEA0A09
:1037A000FB0ACD82DE82EF82F886C80162E070E01B
:1037B0000E943B4EFC01C080D180E280F380CE01AC
:1037C0000D9662E070E00E943B4EFC018081918189
:1037D000A281B381C81AD90AEA0AFB0AC986DA8625
:1037E000EB86FC8689819A81AB81BC810097A1051B
:1037F000B10569F48D819E81AF81B8850097A105DF
:10380000B10529F4C114D104E104F10459F0809107
:10381000480A83FF05C0CE0101960E94245202C0CF
:103820001092480AA0960FB6F894DEBF0FBECDBF27
:10383000DF91CF911F910F91FF90EF90DF90CF908C
:103840000895109211080895882311F080E401C0B2
:1038500080E8809338086093490A1092470A0895D7
:1038600081E080933708089580913808181634F461
:103870008091490A882321F082E0089580E008952C
:1038800081E0089580913808089581E0909138088A
:10389000923008F480E00895CF93DF93CDB7DEB780
:1038A00064970FB6F894DEBF0FBECDBFDC01CB012D
:1038B0008093330890933408A0933508B09336086A
:1038C000CE0101960E943F82CE01019662E070E037
:1038D0000E94334E4091330850913408609135086E
:1038E00070913608FC0180819181A281B381841797
:1038F0009507A607B7071CF01092320803C081E0B5
:103900008093320864960FB6F894DEBF0FBECDBF29
:10391000DF91CF9108950F931F9300913308109179
:1039200034082091350830913608B801C9011F913B
:103930000F91089520913D0830913E0881E02115B6
:10394000310509F080E00895482F80913D0890915D
:103950003E0860913B0870913C0886179707E8F491
:1039600020913D0830913E0880913F089091400899
:10397000820F931F0E9484FCE0914108F09142085D
:10398000E80FF91F408380913D0890913E08019611
:1039900090933E0880933D08089581E0EBE3F8E0C2
:1039A00080870895CF9360E070E080E090E00E940F
:1039B0004C1C1092320810920608109207081092C0
:1039C00008081092090810920A08C1E0C093510437
:1039D00010924A0A109239081092380810924C0A34
:1039E00010924B0A1092490A10922A0810922B0842
:1039F00010922C0810922D0810922E0810922F0869
:103A00001092300810923108E2E2F8E01092220899
:103A100011821282138214821582168217821092EA
:103A20001A0810921B0810921C0810921D08109280
:103A30001E0810921F081092200810922108E2E13F
:103A4000F8E01092120811821282138214821582F9
:103A5000168217821092510A1092520A1092530A3B
:103A60001092540A10924D0A10924E0A10924F0A68
:103A70001092500A82E490E061E00E94F7B8823030
:103A8000B9F58FEF9FE060E00E94F7B8882381F1DD
:103A9000C093FB07109201081092020810920308CD
:103AA00010920408109200081092FC071092FD0773
:103AB0001092FE071092FF071092470A1092450AD3
:103AC0001092460A1092F8071092F7071092FA0720
:103AD0001092F90710920C0810920B0810920E0821
:103AE00010920D081092480A0E947052CF910895CA
:103AF0001092FB07CFCF0E94D21C85E68093520420
:103B000010923E0810923D081092400810923F0813
:103B100010924308109244081092F607089581E02D
:103B20009091F607963009F080E008952F923F9229
:103B30004F925F926F927F928F929F92AF92BF92BD
:103B4000CF92DF92EF92FF920F931F93CF93DF9369
:103B5000CDB7DEB7AB970FB6F894DEBF0FBECDBFC3
:103B6000382E882321F081E08093110805C08091D0
:103B70001108882309F4FDC08E01095E1F4FC8019A
:103B80000E943F8281E089838A832E010894411C30
:103B9000511C73E0672E712C8CE39CE00BA7212E47
:103BA00008C00894411C511C85EC9CE064E0662E22
:103BB000712CFC01EE58FF4F2081FC01222319F0EB
:103BC00027A530A904C0E35AFF4F20813181211578
:103BD0003105B1F147960E9489BC882389F18BA5F4
:103BE000922DB3010E943B4E8C01FC01808091809C
:103BF000A280B380F2018081831531F451E0C52E9B
:103C0000D12CE12CF12C04C0CC24CA94DC2C7601FC
:103C100060E070E080E090E4462D0E9407809B0108
:103C2000AC01C701B6010E9459FCDC01CB01880D33
:103C3000991DAA1DBB1DF80180839183A283B383C4
:103C4000F4E06F16710409F0ACCF8CEE91E060EDFA
:103C500077E00E9407B9BC0180E090E00E94A7FADB
:103C600020914117309142174091431750914417CA
:103C70000E94ADFB9B01AC0160E074E284E799E433
:103C80000E94D4F90E9476FAC62EF72EE82ED92E7D
:103C90008091FB07882339F180913A08882361F4E9
:103CA000CE01479664E070E00E943B4E8C01CE014D
:103CB000479663E070E00BC0CE01479663E070E08A
:103CC0000E943B4E8C01CE01479664E070E00E945A
:103CD0003B4EFC0180819181A281B381F8018083F8
:103CE0009183A283B383CE0147964C2D5F2D6E2D19
:103CF0007D2D00E010E020E030E0EE240E94AF8354
:103D00003320B9F5CE0103960E943F82CE0103967F
:103D100063E070E00E943B4E8C0185E59AE063E031
:103D200070E00E943B4EFC0180819181A281B381B1
:103D3000F80180839183A283B383CE01039664E06C
:103D400070E00E943B4E8C0185E59AE064E070E0F3
:103D50000E943B4EFC0180819181A281B381F801D8
:103D600080839183A283B383CE01039660E00E9497
:103D70008E81AB960FB6F894DEBF0FBECDBFDF913C
:103D8000CF911F910F91FF90EF90DF90CF90BF9058
:103D9000AF909F908F907F906F905F904F903F90EB
:103DA0002F9008952F923F924F925F926F927F9241
:103DB0008F929F92AF92BF92CF92DF92EF92FF923B
:103DC0000F931F93CF93DF93CDB7DEB7CD57D0407E
:103DD0000FB6F894DEBF0FBECDBF182FCE018F5A9D
:103DE0009F4F0E94FE4DCE01CD960E94FE4D1123A5
:103DF00009F4E0C0E3ECF6E180E09081992309F456
:103E000099C2DF0111979C91992309F493C28F5FA6
:103E1000BD96833091F7DE019996E5E5FAE084E1FD
:103E200001900D928150E1F7CE0145960E943F82AC
:103E3000CE01899660E070E00E943B4E6C0140919B
:103E4000C8165091C9166091CA167091CB168EE0B3
:103E500090E00E941DB94B015C0180E00E94BC7F94
:103E600020E030E040EA50E40E94ADFB0E9476FA88
:103E7000DC01CB01881A990AAA0ABB0AF6018082E2
:103E80009182A282B382CE01899661E070E00E94A5
:103E90003B4E6C014091F5165091F6166091F71665
:103EA0007091F81682E190E00E941DB94B015C010F
:103EB00081E00E94BC7F20E030E040EA50E40E94B4
:103EC000ADFB0E9476FADC01CB01880D991DAA1D7D
:103ED000BB1DF60180839183A283B383CE018996B3
:103EE00062E070E00E943B4E6C01409122175091BD
:103EF0002317609124177091251786E190E00E94A6
:103F00001DB94B015C0182E00E94BC7F20E030E0E3
:103F100040EA50E40E94ADFB0E9476FADC01CB013E
:103F2000881A990AAA0ABB0AF60180829182A282A3
:103F3000B382CE01899663E070E00E943B4E4C0153
:103F4000CE01459663E070E00E943B4EFC0180810B
:103F50009181A281B381F40180839183A283B38391
:103F6000CE01899664E070E00E943B4E4C01CE0188
:103F7000459664E070E00E943B4EFC018081918197
:103F8000A281B381F40180839183A283B383CE01A4
:103F90008B599F4FBE01675D7F4F0E944B81DE01B1
:103FA000DD96FE01EB59FF4F84E101900D928150A7
:103FB000E1F767C0DE01DD96E5E5FAE084E1019016
:103FC0000D928150E1F7CE0145960E943F82CE01CD
:103FD000459660E070E00E943B4EFC0140805180BD
:103FE00062807380CE01459661E070E00E943B4E96
:103FF000FC010081118122813381CE01459662E06E
:1040000070E0ED962FAFED97EE963FAFEE970E94E2
:104010003B4EFC01C080D180E280F380CE01CD9682
:1040200063E070E00E943B4EFC0180809180A280A2
:10403000B380CE01CD9664E070E00E943B4E00D08C
:104040000F92FC0180819181A281B381EDB7FEB70F
:1040500081839283A383B483CE010196B301A2012D
:10406000ED962FADED97EE963FADEE970E94FF4D8A
:104070000F900F900F900F90CE01019660E00E947C
:104080008E81609118177091191780911A1790916D
:104090001B170E94A9FA20E030E040E857E30E9495
:1040A000ADFB2091141730911517409116175091C0
:1040B00017170E94ADFB0E9476FA262EEA967FAF74
:1040C000EA97EB968FAFEB97EC969FAFEC97CE010C
:1040D0008B599F4F0E943F82DE01AF5ABF4FFE01B6
:1040E000EB59FF4F84E101900D928150E1F7CE0131
:1040F0008F5A9F4F60E070E00E943B4EFC01808031
:104100009180A280B380CE01CD9660E070E00E94E5
:104110003B4EFC0180819181A281B381A501940174
:10412000281B390B4A0B5B0BCA01B9010E94A9FA83
:104130002091BA163091BB164091BC165091BD1615
:104140000E94D4F9C62E172F082FF92ECE018F5AB0
:104150009F4F61E070E00E943B4EFC0180809180A7
:10416000A280B380CE01CD9661E070E00E943B4E0C
:10417000FC0180819181A281B381A5019401281B5A
:10418000390B4A0B5B0BCA01B9010E94A9FA2091B5
:10419000E7163091E8164091E9165091EA160E9410
:1041A000D4F9462E672E582E392ECE018F5A9F4FA6
:1041B00062E070E00E943B4EFC0180809180A28012
:1041C000B380CE01CD9662E070E00E943B4EFC01D0
:1041D00080819181A281B381A5019401281B390BB3
:1041E0004A0B5B0BCA01B9010E94A9FA209114176E
:1041F0003091151740911617509117170E94D4F956
:10420000762E872EB82EA92E302F8C2D912FA02FF1
:10421000BF2DBC01CD010C2D232F3B2FA9019801EF
:104220000E94ADFB6B017C01352D842D962DA52DB3
:10423000B32DBC01CD01042D162D232F3B2FA90139
:1042400098010E94ADFB9B01AC01C701B6010E9421
:1042500059F96B017C019501872D982DA32FB22F61
:10426000BC01CD01A501072D182D252F342FA90143
:1042700098010E94ADFB9B01AC01C701B6010E94F1
:1042800059F90E9414FC7B018C018091FB07882363
:1042900039F180913A08882361F4CE01CD9664E02B
:1042A00070E00E943B4E4C01CE01CD9663E070E081
:1042B0000BC0CE01CD9663E070E00E943B4E4C01F6
:1042C000CE01CD9664E070E00E943B4EFC018081FF
:1042D0009181A281B381F40180839183A283B3830E
:1042E0007090BB171092BB178090181790901917F9
:1042F000A0901A17B0901B17E6E0880C991CAA1C16
:10430000BB1CEA95D1F74501BB2497FCB094AB2CBC
:10431000CE01CD96422DEA965FADEA97EB966FAD52
:10432000EB97EC967FADEC9720E064010E94268528
:104330007092BB17C358DF4F0FB6F894DEBF0FBEA5
:10434000CDBFDF91CF911F910F91FF90EF90DF9044
:10435000CF90BF90AF909F908F907F906F905F9025
:104360004F903F902F9008951F93CF93DF93E82FA6
:10437000F0E0A3E0EE0FFF1FAA95E1F7EE5DF74F27
:104380002081318142815381648175818681978149
:1043900097FF56C02195E1E0121608F0E0E0319554
:1043A000F1E0131608F0F0E0132F1E1BE1E03117C7
:1043B00008F0E0E0FE2B4195E1E0141608F0E0E0A3
:1043C000D42FDF1B31E04D1708F030E0E32B51957F
:1043D000F1E0151608F0F0E0C52FCE1B31E05C17B8
:1043E00008F030E0F32B6195E1E0161608F0E0E00C
:1043F000B62FBF1B31E06B1708F030E0E32B71954F
:10440000F1E0171608F0F0E0A72FAE1B31E07A17A5
:1044100008F030E0F32B8195E1E0181608F0E0E0B9
:10442000382F3F1BF32F31E08F1708F030E0E32BDC
:104430009195312F4D2F5C2F6B2F7A2F8F2F9E1B35
:10444000DF91CF911F9108957F928F929F92AF92AB
:10445000BF92CF92DF92EF92FF920F931F93CF9371
:10446000DF93D82E0E94B421C22FC32EB42EA52EC6
:10447000962E872E782ED92F191694F0992309F0AD
:10448000A4C0882369F4772359F4662349F455239B
:1044900039F4442329F4332319F4222309F495C071
:1044A000ED2CFF2487E390E0E80EF91E13E0EE0CFC
:1044B000FF1C1A95E1F7C70100E010E020E030E0B2
:1044C00040E050E060E070E00E94CEB9022F0C0F97
:1044D00011E0021708F010E0C30E21E0C31608F047
:1044E00020E01C0D31E01C1508F030E0232BB40E49
:1044F00031E0B41608F030E02B0D41E02B1508F048
:1045000040E0342BA50E41E0A51608F040E03A0D3E
:1045100051E03A1508F050E0452B960E51E0961602
:1045200008F050E0490D61E0491508F060E0562BB5
:10453000870E61E0871608F060E0580D71E05815AD
:1045400008F070E0672B780E71E0781608F070E0E4
:10455000670D81E0671508F080E0782BD90F7D0F9B
:10456000C7010E9427BAED2DF0E0B3E0EE0FFF1F68
:10457000BA95E1F7DF01AE5EB74FEE5DF74F808190
:104580008C93818111968C931197828112968C93D2
:104590001297838113968C931397848114968C932E
:1045A0001497858115968C931597868116968C9312
:1045B0001697878117968C93179710821182128213
:1045C00013821482158216821782DF91CF911F9178
:1045D0000F91FF90EF90DF90CF90BF90AF909F90A2
:1045E0008F907F90089580E00E94242281E00E94B5
:1045F000242208951F93CF93DF93E82FF0E083E008
:10460000EE0FFF1F8A95E1F7EE5EF74F20813181B3
:1046100042815381648175818681978197FF56C05D
:104620002195E1E0121608F0E0E03195F1E0131673
:1046300008F0F0E0132F1E1BE1E0311708F0E0E076
:10464000FE2B4195E1E0141608F0E0E0D42FDF1BCB
:1046500031E04D1708F030E0E32B5195F1E01516ED
:1046600008F0F0E0C52FCE1B31E05C1708F030E019
:10467000F32B6195E1E0161608F0E0E0B62FBF1BC2
:1046800031E06B1708F030E0E32B7195F1E017167D
:1046900008F0F0E0A72FAE1B31E07A1708F030E009
:1046A000F32B8195E1E0181608F0E0E0382F3F1B6E
:1046B000F32F31E08F1708F030E0E32B9195312F85
:1046C0004D2F5C2F6B2F7A2F8F2F9E1BDF91CF9159
:1046D0001F910895CF92DF92EF92FF921F93CF9395
:1046E000DF9380E00E94FA22B901CA0143E00E94F0
:1046F000DA7F6B017C0181E00E94FA22B901CA01D4
:1047000044E00E94DA7F9B01AC01C701B6010E9420
:1047100059F9C62FC72ED82F192F80E00E94B42137
:10472000B901CA0143E00E94DA7F9B01AC018C2FE2
:104730009C2DAD2FB12FBC01CD010E9459F9D62F70
:10474000C72FC82E192F81E00E94B421B901CA01D8
:1047500044E00E94DA7F9B01AC01FE018F2F9E2F67
:10476000AC2DB12FBC01CD010E9459F9462F572F16
:10477000682F792FCB01BA01DF91CF911F91FF9064
:10478000EF90DF90CF9008950F931F93CF93DF9317
:10479000082FC6E0D8E010E08881882369F4812FD3
:1047A0000E944E888883812F002319F00E94508830
:1047B00003C064E10E944D881F5F2196153061F7A8
:1047C000DF91CF911F910F9108951F93CF93DF93A6
:1047D000C6E0D8E010E0812F68810E944D881992D0
:1047E0001F5F1530C1F7DF91CF911F910895EF92B0
:1047F000FF921F93CF93DF93C82F40913F085091B2
:10480000400820913B0830913C08E0904108F0902E
:1048100042084F5F5F4FCA01B9010E9484FCFC014E
:10482000EE0DFF1D1081CF3F09F01C2F80913F0836
:10483000909140080296B9010E9484FC8E0D9F1D44
:10484000DC018C918D3009F4C1C08E3050F48C3075
:1048500008F0A2C0843008F021C1833009F01CC1E7
:104860000DC0873109F48EC0883120F4803108F002
:1048700013C114C18F3109F00FC1BCC080913F0832
:1048800090914008E0913F08F09140080496B901EA
:104890000E9484FC8E0D9F1DDC014C913596CF014A
:1048A000B9010E9484FC8E0D9F1DFC01F080EE2456
:1048B000E40EF11CE114F10419F40E94F32223C068
:1048C000C12FD0E0CC0FDD1FFE01E950F84F8081F1
:1048D0009181009739F48DEF9FE060E00E94F7B876
:1048E000882389F0C950D84F88819981009751F465
:1048F000812F90E084559F4F880F991F66EE70E0DE
:104900000E9407B97C01113019F485EC9CE002C0CB
:104910008CE39CE04796B7010E94B0BB8DED9BE015
:104920000E94BDBC882309F4C0C08DED9BE00E94AD
:10493000D7BC882309F0B9C0113019F485EC9CE08C
:1049400002C08CE39CE047960E94D7BC882309F004
:10495000ACC081E080933908113019F485EC9CE0FB
:1049600002C08CE39CE0479661E004C08CE39CE0CD
:10497000479660E00E9420BD80915F0D8E7F8093FE
:104980005F0D8CC00E94341C91E0811190E0892F52
:1049900060E00E94584082C0113019F4E5ECFCE060
:1049A00002C0ECE3FCE080913F089091400804963F
:1049B000B9010E9484FC8E0D9F1DDC016C9170E09A
:1049C00061707070CF010E94888E68C080913F082E
:1049D000909140080496B9010E9484FC8E0D9F1DA1
:1049E000FC01608170E0617070708DED9AE00E9452
:1049F000604954C00E94F13A882309F44FC0809165
:104A00003F0890914008E0913B08F0913C08C0912C
:104A10004108D091420820913F0830914008049607
:104A2000BF010E9484FC8C0F9D1FDC014C912B5F09
:104A30003F4FC901BF010E9484FC8C0F9D1FFC01E8
:104A4000F081DF2F20E0C22FC40FD11D209771F01D
:104A50008DEF9FE060E00E94F7B8882339F08CE585
:104A600091E064E670E00E9407B9EC018DED9BE0F7
:104A7000BE010E94B0BB8DED9AE061E00E945B49EF
:104A80008DED9BE00E94D7BC91E098279093390868
:104A9000892F0E940B4C70CF80E001C081E0DF9134
:104AA000CF911F91FF90EF900895113009F05ECFE4
:104AB00085EC9CE05DCF0F931F93CF93DF93CDB731
:104AC000DEB769970FB6F894DEBF0FBECDBF8091F9
:104AD0003808853409F4F4C0863490F48134F1F157
:104AE000823438F4803209F4D0C1803409F0F3C143
:104AF00020C0833409F44EC0843408F055C038C057
:104B0000843809F489C1853850F4813809F45CC1CE
:104B1000833809F469C1803809F0DDC1F4C08638F2
:104B200009F494C1863808F487C1873809F0D3C1E5
:104B300092C10E94533E853051F00E94533E843012
:104B400031F08AE896E16BE476E10E941E1B81E475
:104B50008093380881E00E94C423BDC18091470E34
:104B60009091460E891B8F7009F0B5C182E4B1C1E6
:104B7000CE0106960E943F82A5E5BAE0FE01369678
:104B800084E101900D928150E1F781E00E94961D31
:104B900083E49FC18091470E9091460E891B8F70D0
:104BA00009F099C184E495C181E00E94D21E85E498
:104BB000809338080E94533E853031F00E94533E66
:104BC000843011F010E001C011E0CE01019662E4E2
:104BD0007BE140E00E94F9F2CE0101960E944EF383
:104BE000809305088DED9AE060E00E946049809115
:104BF000AE0C882329F080916B0C90916C0C04C052
:104C00008091990C90919A0C90930C0880930B08CA
:104C10008091370D882329F08091F40C9091F50C48
:104C200004C08091220D9091230D90930E088093E3
:104C30000D088091380C882329F08091F50B909114
:104C4000F60B04C08091230C9091240C90931008D3
:104C500080930F088091490A882339F48EEF9FE0F2
:104C600060E00E94F7B8882311F40E94F31A809143
:104C7000490A882351F080E060E040E021E00E9492
:104C8000C88F88EF60E00E941D8860914B0A709188
:104C90004C0A6115710551F080914A0A882319F078
:104CA00085E796E1C6C08AE896E1C3C0112319F0F2
:104CB00085E796E102C08AE896E166E376E1B9C04D
:104CC0008091470E9091460E891B8F7009F003C1A9
:104CD0000E94E52380914A0A882311F080E201C0F6
:104CE00081E0809338080E94561B0E94533E853015
:104CF00009F4F1C00E94533E843009F4ECC087E00F
:104D00000E94814DE8C080E00E94C42380910F087A
:104D100090911008181619066CF48DED9BE060E078
:104D20000E9420BD60910F08709110088DED9BE0EE
:104D30000E94B0BB0091F7071091F807011511050B
:104D400021F400910B0810910C0810161106B4F410
:104D500083E59CE060E00E9420BD83E59CE0B80113
:104D60000E94B0BB80910F08909110081816190688
:104D70002CF483E59CE061E00E9420BD0091F907DE
:104D80001091FA070115110521F400910D081091F9
:104D90000E0810161106B4F48CED9CE060E00E9441
:104DA00020BD8CED9CE0B8010E94B0BB80910F0843
:104DB00090911008181619062CF48CED9CE061E017
:104DC0000E9420BD81E885C080910F089091100855
:104DD000181619060CF070C08DED9BE00E9489BC7E
:104DE000882309F478C068C080910B0890910C0862
:104DF000181619060CF062C083E59CE00E9489BC7D
:104E0000882309F468C05AC08CED9CE00E9489BCDC
:104E1000882309F460C05AC081E00E94C42380E066
:104E20000E94D21E85E88093380880E696E161E210
:104E300076E10E941E1B4FC08091470E9091460E56
:104E4000891B8F7009F047C086E843C080E00E944C
:104E5000961D87E83EC08091470E9091460E891BB3
:104E60008F70C9F58DED9AE0609105080E94604948
:104E70000E94E5230E94561B1092380810924C0A9B
:104E800010924B0A1092470A26C00E94561B60914E
:104E90004B0A70914C0A8DED9AE040E021E00E94AF
:104EA0006A480E94874F10924C0A10924B0A109247
:104EB0004A0A109238080FC083E80BC080910D0891
:104EC00090910E08181619060CF49ECF0E94E52347
:104ED00084E88093380869960FB6F894DEBF0FBE59
:104EE000CDBFDF91CF911F910F910895CF92DF92A7
:104EF000EF92FF920F931F93CF93DF93C0915204D1
:104F0000C53609F464C0CC2309F461C0D09100080F
:104F1000CD1709F45CC0DD2309F459C06091FC078A
:104F20007091FD078091FE079091FF076115710553
:104F30008105910509F44BC00E94A7FA6B017C0121
:104F40006C2F70E06D1B7109882777FD8095982F75
:104F50000E94A9FA9B01AC01C701B6010E94D4F9D5
:104F60006B017C016C2F70E080E090E00E94A7FA5A
:104F70009B01AC0160E070E088EC92E40E9458F97B
:104F80009B01AC01C701B6010E94ADFBD62FC72E15
:104F9000082FC92F862F9C2DA02FBC2FBC01CD011F
:104FA00020E030E040E050E00E94D0F987FF04C0EC
:104FB000D0E0CC2400E0C0E08D2F9C2DA02FBC2F92
:104FC000BC01CD010E9476FA8B019C0104C000E077
:104FD00010E020E030E0B801C901DF91CF911F91CE
:104FE0000F91FF90EF90DF90CF900895CF93DF93D4
:104FF000FC0182819381009721F481E0818780E028
:1050000019C08481958120813181B9010E9484FC7D
:10501000C681D781C80FD91F848195810196B901B6
:105020000E9484FC9583848382819381019793837A
:1050300082838881DF91CF910895EF92FF921F9331
:10504000CF93DF930F920F92CDB7DEB74BE3E42EF1
:1050500048E0F42EC7010E94F627682FC7016A8333
:105060000E94F627782FC70179830E94F627182F10
:10507000C7010E94F627982F6A817981812F0F90AE
:105080000F90DF91CF911F91FF90EF9008951F93A4
:10509000CF93DF93CBE3D8E0CE010E94F627182F01
:1050A000CE010E94F627982F812FDF91CF911F917B
:1050B00008958BE398E00E94F62708952F923F927F
:1050C0004F925F926F927F928F929F92AF92BF9218
:1050D000CF92DF92EF92FF920F931F93CF93DF93C4
:1050E000CDB7DEB7CB5ED0400FB6F894DEBF0FBEB3
:1050F000CDBF0E94234F882309F56AC020913D0847
:1051000030913E0880913F0890914008820F931F94
:105110000E9484FCE0914108F0914208E80FF91FD9
:10512000408380913D0890913E08019690933E08FF
:1051300080933D0804C01093430801C011E08091A2
:105140003D0890913E0820913B0830913C0828177B
:10515000390711F40C943A370E94754F882311F4E3
:105160000C943A370E94784F482F80913D089091D7
:105170003E0860913B0870913C088617970708F439
:10518000BDCFD9CF809153048823D1F090913808B6
:105190009923B1F491E090934A0A813019F483E79E
:1051A0009DE107C08B3019F482E19DE102C080E6E9
:1051B0009DE190934C0A80934B0A0E94FC1A08C010
:1051C00080914B0A90914C0A009711F40E94874FEE
:1051D0000E948B8C882309F54CC020913D083091AA
:1051E0003E0880913F0890914008820F931F0E94D3
:1051F00084FCE0914108F0914208E80FF91F4083D8
:1052000080913D0890913E08019690933E088093CE
:105210003D0804C01093430801C011E080913D088F
:1052200090913E0820913B0830913C08281739079F
:1052300011F40C9442370E94998C882311F40C9439
:1052400042370E94A78C482F80913D0890913E08DC
:1052500060913B0870913C088617970708F4BDCF12
:10526000D9CF80913D0890913E08009711F40E949B
:10527000E08C80913908882359F08DED9BE00E94E5
:1052800089BC882329F080E00E940B4C10923908D9
:105290008091330890913408A0913508B091360878
:1052A0000097A105B10529F180913208882309F5FD
:1052B000CE018F579F4F0E943F82CE018F579F4F45
:1052C00062E070E00E94334E409133085091340800
:1052D0006091350870913608FC0180819181A2812E
:1052E000B38184179507A607B7071CF481E0809364
:1052F00032088091330890913408A0913508B0911C
:1053000036080097A105B10511F40C944A37809135
:105310003208882311F40C944A370E94341C8823E5
:1053200011F00C944A37CE0183599F4F0E943F825F
:10533000CE0183599F4F62E070E00E94334E40914E
:105340003308509134086091350870913608FC019B
:1053500080819181A281B38184179507A607B70741
:1053600014F40C944A3760E070E080E090E00E9412
:105370004C1C81E060E00E9458400C947F370E94F2
:105380005B250C947F371130B1F48091490A882352
:1053900011F00C947F3780913708882311F00C941A
:1053A0007F3780E99BE00E9491F6882311F40C94EA
:1053B0007F370C9452378091F607833071F40E9446
:1053C0006F80882341F08AEE97E00E9491F688234F
:1053D00021F00E9420891092F6078091470A8823C5
:1053E000E1F08091460A8823C1F08091F60783306E
:1053F000A1F080913808882381F40E94341C88230E
:1054000051F480E494E090934C0A80934B0A81E03D
:1054100061E00E9458401092470A8091F60781305F
:1054200031F40E946F80882311F41092F607809166
:10543000F607823041F480EF97E00E9491F68823CE
:1054400011F01092F6078091F607843009F052C0EF
:1054500084EE97E00E9491F6882349F08DED9AE062
:105460006BE47CE140E020E00E946A4841C080910A
:105470003A08813019F485EC9CE002C08CE39CE092
:1054800047960E94BDBC882399F48091FB0788232E
:1054900079F180913A08882319F485EC9CE002C0E8
:1054A0008CE39CE047960E94BDBC882319F520C080
:1054B00080913A08813019F485EC9CE002C08CE3BD
:1054C0009CE047960E9489BC8823A1F08091FB074D
:1054D000882371F080913A08882319F485EC9CE0C8
:1054E00002C08CE39CE047960E9489BC882311F09F
:1054F0001092F6078091F6078530E9F484EE97E084
:105500000E9491F6882349F08DED9AE066E17CE1F6
:1055100040E020E00E946A480CC08DED9BE00E94B4
:10552000BDBC882331F08DED9BE00E9489BC8823AF
:1055300011F01092F6078091F607863089F58EED0E
:1055400097E00E9491F6882391F08091DC0781FF1B
:1055500006C08DED9AE060E00E943A4B21C01092A7
:10556000F60780915F0D8F7E80935F0D19C088EAEA
:105570009BE00E94DCC1882399F08091DC0782FFC8
:1055800004C088EA9BE00E9425C00E94044C8091E0
:105590005F0D8F7E80935F0D0E94BC901092F60786
:1055A0008091F607882311F00C947F3780913D0895
:1055B00090913E08009711F40C947F378DED9AE09E
:1055C0000E94FE4780913F089091400860913B08FF
:1055D00070913C080E9484FCE0914108F0914208DF
:1055E000E80FF91F00810B38A1F10E3811F40C946B
:1055F00065370B3911F40C946E37093811F40C949B
:105600006137063811F40C9477370C3811F40C9488
:1056100061370C3911F40C946137003911F40C9492
:105620006137033811F40C946137043811F40C9489
:105630006137083811F40C946137043911F40C9473
:1056400061370E94B967882311F00C9461370C947C
:105650007F3780913D0890913E088931910510F483
:105660000C947F370E94592881E08093F6070E94AE
:105670001D28C254DF4F688379838A839B83CE5B66
:10568000D0400E941D28CE53DF4F688379838A83E0
:105690009B83C25CD0400E941D28CA53DF4F6883A1
:1056A00079838A839B83C65CD0400E941D284B016E
:1056B0005C010E941D286B017C010E941D28C653BD
:1056C000DF4F688379838A839B83CA5CD040809153
:1056D000FB07882349F080913A08882319F4750163
:1056E000640102C04601570180914D0A90914E0A13
:1056F000A0914F0AB091500AA5019401281B390BC3
:105700004A0B5B0BDA01C901192FFA2FEB2FBB0FE4
:10571000880B982FDC01782F682F582F9091220842
:105720003091230840902408509025086090260866
:105730007090270800912808B0912908920F41E045
:10574000921708F040E0310F21E0311708F020E017
:10575000430FA1E0431708F0A0E02A2B4F0E31E0E1
:105760004F1608F030E0240DF1E0241508F0F0E0C9
:105770003F2B5E0EF1E05E1608F0F0E0A32FA50DC2
:1057800031E0A51508F030E0F32B670EE1E0671675
:1057900008F0E0E0F60D31E0F61508F030E0E32B1C
:1057A000760E31E0761608F030E0E70D61E0E7159F
:1057B00008F060E0362B050F61E0051708F060E0A7
:1057C000300F51E0301708F050E0562B8B0F580F78
:1057D000909322084093230820932408A09325083F
:1057E000F0932608E093270830932808509329085F
:1057F0008091510A9091520AA091530AB091540A93
:10580000A7019601281B390B4A0B5B0BDA01C90172
:10581000192FFA2FEB2FBB0F880B982FDC01782F55
:10582000682F582F90912A0830912B0840902C080F
:1058300050902D0860902E0870902F08009130082D
:10584000B0913108920F41E0921708F040E0310F1B
:1058500021E0311708F020E0430FA1E0431708F0E2
:10586000A0E02A2B4F0E31E04F1608F030E0240D57
:10587000F1E0241508F0F0E03F2B5E0EF1E05E163B
:1058800008F0F0E0A32FA50D31E0A51508F030E0F9
:10589000F32B670EE1E0671608F0E0E0F60D31E06B
:1058A000F61508F030E0E32B760E31E0761608F0BE
:1058B00030E0E70D61E0E71508F060E0362B050FFA
:1058C00061E0051708F060E0300F51E0301708F094
:1058D00050E0562B8B0F580F90932A0840932B08BB
:1058E00020932C08A0932D08F0932E08E0932F0806
:1058F000309330085093310880924D0A90924E0AAE
:10590000A0924F0AB092500AC092510AD092520A05
:10591000E092530AF092540A0E94E41A00D00F92C7
:10592000ADB7BEB71196CD92DD92ED92FC92149771
:10593000CE018B5B9F4FC254DF4F488159816A81F2
:105940007B81CE5BD040CE53DF4F088119812A8105
:105950003B81C25CD040CA53DF4FC880D980EA8007
:10596000FB80C65CD0400E94FF4D0F900F900F90BF
:105970000F90CE018B5B9F4FC653DF4F48815981FB
:105980006A817B81CA5CD04000E010E020E030E01A
:10599000EE2458C20E94592881E08093F6070E94A5
:1059A0001D28C653DF4F688379838A839B83CA5C33
:1059B000D0400E941D28C053DF4F688379838A83BB
:1059C0009B83C05DD0400E941D28CC52DF4F68836E
:1059D00079838A839B83C45DD0400E941D284B013C
:1059E0005C010E941D28062FC72E182FF92E0E9439
:1059F0001D28C852DF4F688379838A839B83C85DE3
:105A0000D0400E945928782E8091FB078823D9F036
:105A100080913A08882339F4BFEE7B2273FE0AC0D6
:105A2000E0E17E2A07C0F7EF7F2274FE08C028E07D
:105A3000722A05C0082DC92C1A2DFB2C04C0802EFB
:105A40009C2CA12EBF2C898A9A8AAB8ABC8A0D8B8A
:105A5000CE8A1F8BF88EE2E2F8E0AE014F5E5F4F18
:105A6000CA53DF4F59834883C65CD0408DE49AE027
:105A7000C254DF4F99838883CE5BD040A3E0B0E06F
:105A8000CE53DF4FB983A883C25CD040272D30E0CE
:105A9000C253DF4F39832883CE5CD040CE51DF4FD5
:105AA0007882C25ED040CD51DF4F8882C35ED04045
:105AB000CC51DF4F9882C45ED040CA51DF4FA882DC
:105AC000C65ED0402B2C302E4C2CB12EC951DF4F4E
:105AD000F882C75ED040C253DF4F88819981CE5C87
